{
  "_format": "hh-sol-artifact-1",
  "contractName": "NearBridge",
  "sourceName": "contracts/NearBridge.sol",
  "abi": [
    {
      "inputs": [
        {
          "internalType": "contract Ed25519",
          "name": "ed",
          "type": "address"
        },
        {
          "internalType": "uint256",
          "name": "lockEthAmount_",
          "type": "uint256"
        },
        {
          "internalType": "uint256",
          "name": "lockDuration_",
          "type": "uint256"
        },
        {
          "internalType": "uint256",
          "name": "replaceDuration_",
          "type": "uint256"
        },
        {
          "internalType": "address",
          "name": "admin_",
          "type": "address"
        },
        {
          "internalType": "uint256",
          "name": "pausedFlags_",
          "type": "uint256"
        }
      ],
      "stateMutability": "nonpayable",
      "type": "constructor"
    },
    {
      "anonymous": false,
      "inputs": [
        {
          "indexed": true,
          "internalType": "uint64",
          "name": "height",
          "type": "uint64"
        },
        {
          "indexed": false,
          "internalType": "bytes32",
          "name": "blockHash",
          "type": "bytes32"
        }
      ],
      "name": "BlockHashAdded",
      "type": "event"
    },
    {
      "anonymous": false,
      "inputs": [
        {
          "indexed": true,
          "internalType": "uint64",
          "name": "height",
          "type": "uint64"
        },
        {
          "indexed": false,
          "internalType": "bytes32",
          "name": "blockHash",
          "type": "bytes32"
        }
      ],
      "name": "BlockHashReverted",
      "type": "event"
    },
    {
      "inputs": [],
      "name": "acceptAdmin",
      "outputs": [],
      "stateMutability": "nonpayable",
      "type": "function"
    },
    {
      "inputs": [
        {
          "internalType": "bytes",
          "name": "data",
          "type": "bytes"
        }
      ],
      "name": "addLightClientBlock",
      "outputs": [],
      "stateMutability": "nonpayable",
      "type": "function"
    },
    {
      "inputs": [],
      "name": "admin",
      "outputs": [
        {
          "internalType": "address",
          "name": "",
          "type": "address"
        }
      ],
      "stateMutability": "view",
      "type": "function"
    },
    {
      "inputs": [
        {
          "internalType": "address",
          "name": "target",
          "type": "address"
        },
        {
          "internalType": "bytes",
          "name": "data",
          "type": "bytes"
        }
      ],
      "name": "adminDelegatecall",
      "outputs": [
        {
          "internalType": "bytes",
          "name": "",
          "type": "bytes"
        }
      ],
      "stateMutability": "payable",
      "type": "function"
    },
    {
      "inputs": [
        {
          "internalType": "uint256",
          "name": "flags",
          "type": "uint256"
        }
      ],
      "name": "adminPause",
      "outputs": [],
      "stateMutability": "nonpayable",
      "type": "function"
    },
    {
      "inputs": [],
      "name": "adminReceiveEth",
      "outputs": [],
      "stateMutability": "payable",
      "type": "function"
    },
    {
      "inputs": [
        {
          "internalType": "address payable",
          "name": "destination",
          "type": "address"
        },
        {
          "internalType": "uint256",
          "name": "amount",
          "type": "uint256"
        }
      ],
      "name": "adminSendEth",
      "outputs": [],
      "stateMutability": "nonpayable",
      "type": "function"
    },
    {
      "inputs": [
        {
          "internalType": "uint256",
          "name": "key",
          "type": "uint256"
        },
        {
          "internalType": "uint256",
          "name": "value",
          "type": "uint256"
        }
      ],
      "name": "adminSstore",
      "outputs": [],
      "stateMutability": "nonpayable",
      "type": "function"
    },
    {
      "inputs": [
        {
          "internalType": "uint256",
          "name": "key",
          "type": "uint256"
        },
        {
          "internalType": "uint256",
          "name": "value",
          "type": "uint256"
        },
        {
          "internalType": "uint256",
          "name": "mask",
          "type": "uint256"
        }
      ],
      "name": "adminSstoreWithMask",
      "outputs": [],
      "stateMutability": "nonpayable",
      "type": "function"
    },
    {
      "inputs": [
        {
          "internalType": "address",
          "name": "",
          "type": "address"
        }
      ],
      "name": "balanceOf",
      "outputs": [
        {
          "internalType": "uint256",
          "name": "",
          "type": "uint256"
        }
      ],
      "stateMutability": "view",
      "type": "function"
    },
    {
      "inputs": [
        {
          "internalType": "uint64",
          "name": "height",
          "type": "uint64"
        }
      ],
      "name": "blockHashes",
      "outputs": [
        {
          "internalType": "bytes32",
          "name": "res",
          "type": "bytes32"
        }
      ],
      "stateMutability": "view",
      "type": "function"
    },
    {
      "inputs": [
        {
          "internalType": "uint64",
          "name": "height",
          "type": "uint64"
        }
      ],
      "name": "blockMerkleRoots",
      "outputs": [
        {
          "internalType": "bytes32",
          "name": "res",
          "type": "bytes32"
        }
      ],
      "stateMutability": "view",
      "type": "function"
    },
    {
      "inputs": [],
      "name": "bridgeState",
      "outputs": [
        {
          "components": [
            {
              "internalType": "uint256",
              "name": "currentHeight",
              "type": "uint256"
            },
            {
              "internalType": "uint256",
              "name": "nextTimestamp",
              "type": "uint256"
            },
            {
              "internalType": "uint256",
              "name": "nextValidAt",
              "type": "uint256"
            },
            {
              "internalType": "uint256",
              "name": "numBlockProducers",
              "type": "uint256"
            }
          ],
          "internalType": "struct NearBridge.BridgeState",
          "name": "res",
          "type": "tuple"
        }
      ],
      "stateMutability": "view",
      "type": "function"
    },
    {
      "inputs": [
        {
          "internalType": "address payable",
          "name": "receiver",
          "type": "address"
        },
        {
          "internalType": "uint256",
          "name": "signatureIndex",
          "type": "uint256"
        }
      ],
      "name": "challenge",
      "outputs": [],
      "stateMutability": "nonpayable",
      "type": "function"
    },
    {
      "inputs": [
        {
          "internalType": "uint256",
          "name": "signatureIndex",
          "type": "uint256"
        }
      ],
      "name": "checkBlockProducerSignatureInHead",
      "outputs": [
        {
          "internalType": "bool",
          "name": "",
          "type": "bool"
        }
      ],
      "stateMutability": "view",
      "type": "function"
    },
    {
      "inputs": [],
      "name": "deposit",
      "outputs": [],
      "stateMutability": "payable",
      "type": "function"
    },
    {
      "inputs": [
        {
          "internalType": "bytes",
          "name": "data",
          "type": "bytes"
        }
      ],
      "name": "initWithBlock",
      "outputs": [],
      "stateMutability": "nonpayable",
      "type": "function"
    },
    {
      "inputs": [
        {
          "internalType": "bytes",
          "name": "data",
          "type": "bytes"
        }
      ],
      "name": "initWithValidators",
      "outputs": [],
      "stateMutability": "nonpayable",
      "type": "function"
    },
    {
      "inputs": [],
      "name": "initialized",
      "outputs": [
        {
          "internalType": "bool",
          "name": "",
          "type": "bool"
        }
      ],
      "stateMutability": "view",
      "type": "function"
    },
    {
      "inputs": [],
      "name": "lastValidAt",
      "outputs": [
        {
          "internalType": "uint256",
          "name": "",
          "type": "uint256"
        }
      ],
      "stateMutability": "view",
      "type": "function"
    },
    {
      "inputs": [],
      "name": "lockDuration",
      "outputs": [
        {
          "internalType": "uint256",
          "name": "",
          "type": "uint256"
        }
      ],
      "stateMutability": "view",
      "type": "function"
    },
    {
      "inputs": [],
      "name": "lockEthAmount",
      "outputs": [
        {
          "internalType": "uint256",
          "name": "",
          "type": "uint256"
        }
      ],
      "stateMutability": "view",
      "type": "function"
    },
    {
      "inputs": [
        {
          "internalType": "address",
          "name": "newAdmin",
          "type": "address"
        }
      ],
      "name": "nominateAdmin",
      "outputs": [],
      "stateMutability": "nonpayable",
      "type": "function"
    },
    {
      "inputs": [],
      "name": "nominatedAdmin",
      "outputs": [
        {
          "internalType": "address",
          "name": "",
          "type": "address"
        }
      ],
      "stateMutability": "view",
      "type": "function"
    },
    {
      "inputs": [],
      "name": "paused",
      "outputs": [
        {
          "internalType": "uint256",
          "name": "",
          "type": "uint256"
        }
      ],
      "stateMutability": "view",
      "type": "function"
    },
    {
      "inputs": [],
      "name": "rejectNominatedAdmin",
      "outputs": [],
      "stateMutability": "nonpayable",
      "type": "function"
    },
    {
      "inputs": [],
      "name": "replaceDuration",
      "outputs": [
        {
          "internalType": "uint256",
          "name": "",
          "type": "uint256"
        }
      ],
      "stateMutability": "view",
      "type": "function"
    },
    {
      "inputs": [],
      "name": "withdraw",
      "outputs": [],
      "stateMutability": "nonpayable",
      "type": "function"
    }
  ],
  "bytecode": "0x60a06040523480156200001157600080fd5b5060405162002d5138038062002d518339810160408190526200003491620000ab565b600080546001600160a01b0319166001600160a01b03841617905560028190556200006484633b9aca0062000110565b83116200007057600080fd5b50506001600160a01b039093166080526003919091556004556005556200013e565b6001600160a01b0381168114620000a857600080fd5b50565b60008060008060008060c08789031215620000c557600080fd5b8651620000d28162000092565b809650506020870151945060408701519350606087015192506080870151620000fb8162000092565b8092505060a087015190509295509295509295565b60008160001904831182151516156200013957634e487b7160e01b600052601160045260246000fd5b500290565b608051612bf76200015a60003960006115fd0152612bf76000f3fe6080604052600436106101b75760003560e01c80636d2d6ae0116100ec578063b8e9744c1161008a578063d0e30db011610064578063d0e30db0146104c5578063e8ac6533146104cd578063f48ab4e014610505578063f851a4401461050d57600080fd5b8063b8e9744c14610465578063be831a2e14610485578063cd5ad4c5146104a557600080fd5b8063a3155fbb116100c6578063a3155fbb146103fa578063ac77a5351461041a578063acb998281461042f578063b3bf91e71461044f57600080fd5b80636d2d6ae01461039657806370a08231146103b65780637875a55c146103e457600080fd5b806337da8ec5116101595780634466ec2c116101335780634466ec2c146102f8578063530208f2146103405780635c975abb146103605780636c4624c31461037657600080fd5b806337da8ec5146102ad5780633ccfd60b146102cd5780633e54ce68146102e257600080fd5b8063158ef93e11610195578063158ef93e1461021c578063160bc0ba1461024d5780631e7038061461026d5780632692c59f1461028d57600080fd5b806304554443146101bc57806309d7e8e7146101e55780630e18b68114610207575b600080fd5b3480156101c857600080fd5b506101d260045481565b6040519081526020015b60405180910390f35b3480156101f157600080fd5b506102056102003660046128b0565b61052d565b005b34801561021357600080fd5b506102056105e9565b34801561022857600080fd5b5060085461023d90600160a01b900460ff1681565b60405190151581526020016101dc565b34801561025957600080fd5b506102056102683660046128b0565b6106b2565b34801561027957600080fd5b506101d26102883660046128e5565b610876565b34801561029957600080fd5b506102056102a836600461290f565b610911565b3480156102b957600080fd5b506101d26102c83660046128e5565b61092d565b3480156102d957600080fd5b506102056109c6565b3480156102ee57600080fd5b506101d260065481565b34801561030457600080fd5b5061030d610a67565b6040516101dc91908151815260208083015190820152604080830151908201526060918201519181019190915260800190565b34801561034c57600080fd5b5061020561035b36600461293d565b610b57565b34801561036c57600080fd5b506101d260025481565b34801561038257600080fd5b50610205610391366004612969565b610bc3565b3480156103a257600080fd5b506102056103b13660046128b0565b610be5565b3480156103c257600080fd5b506101d26103d1366004612995565b6102a46020526000908152604090205481565b3480156103f057600080fd5b506101d260035481565b34801561040657600080fd5b5061023d61041536600461290f565b6113f1565b34801561042657600080fd5b506102056116ff565b34801561043b57600080fd5b5061020561044a36600461293d565b611735565b34801561045b57600080fd5b506101d260055481565b6104786104733660046129b2565b6118d6565b6040516101dc9190612a32565b34801561049157600080fd5b506102056104a0366004612a65565b611962565b3480156104b157600080fd5b506102056104c0366004612995565b61197d565b6102056119cc565b3480156104d957600080fd5b506001546104ed906001600160a01b031681565b6040516001600160a01b0390911681526020016101dc565b610205611a32565b34801561051957600080fd5b506000546104ed906001600160a01b031681565b6000546001600160a01b0316331461054457600080fd5b600854600160a01b900460ff1615801561055e575060d754155b6105af5760405162461bcd60e51b815260206004820152601a60248201527f57726f6e6720696e697469616c697a6174696f6e20737461676500000000000060448201526064015b60405180910390fd5b60006105ba82611a4b565b905060006105c782611a7c565b90506105d282611b49565b6105e48160d660005b60990201611ba0565b505050565b6001546105fe906001600160a01b0316611dbc565b6001546001600160a01b0316331461067e5760405162461bcd60e51b815260206004820152602260248201527f43616c6c6572206d75737420626520746865206e6f6d696e617465642061646d60448201527f696e00000000000000000000000000000000000000000000000000000000000060648201526084016105a6565b600180546000805473ffffffffffffffffffffffffffffffffffffffff199081166001600160a01b03841617909155169055565b6000546001600160a01b031633146106c957600080fd5b600854600160a01b900460ff161580156106e4575060d75415155b6107305760405162461bcd60e51b815260206004820152601a60248201527f57726f6e6720696e697469616c697a6174696f6e20737461676500000000000060448201526064016105a6565b600880547fffffffffffffffffffffff00ffffffffffffffffffffffffffffffffffffffff16600160a01b179055600061076982611a4b565b9050600061077682611ebc565b905061078182611b49565b6080810151516107f95760405162461bcd60e51b815260206004820152602a60248201527f496e697469616c697a6174696f6e20626c6f636b206d75737420636f6e74616960448201527f6e206e6578745f6270730000000000000000000000000000000000000000000060648201526084016105a6565b6040818101805180516007805467ffffffffffffffff191667ffffffffffffffff92831690811790915560208084015160d69081559386015161016f5560c087015160009283526102a2825286832055935160e0810151905190921681526102a384529390932092909255608083015101516105e49160016105db565b6000601080600254166000148061089757506000546001600160a01b031633145b6108a057600080fd5b67ffffffffffffffff831660009081526102a360205260409020549150811580156108cd57506006544210155b80156108da575060065415155b8015610900575060075467ffffffffffffffff8481166801000000000000000090920416145b1561090b57600a5491505b50919050565b6000546001600160a01b0316331461092857600080fd5b600255565b6000601080600254166000148061094e57506000546001600160a01b031633145b61095757600080fd5b67ffffffffffffffff831660009081526102a2602052604090205491508115801561098457506006544210155b8015610991575060065415155b80156109b7575060075467ffffffffffffffff8481166801000000000000000090920416145b1561090b575050600954919050565b60028054811615806109e257506000546001600160a01b031633145b6109eb57600080fd5b6008546001600160a01b031633141580610a0757506006544210155b610a1057600080fd5b3360009081526102a4602052604090205480610a2b57600080fd5b3360008181526102a460205260408082208290555183156108fc0291849190818181858888f193505050501580156105e4573d6000803e3d6000fd5b610a926040518060800160405280600081526020016000815260200160008152602001600081525090565b600654421015610b145760075467ffffffffffffffff168152600c546020820152600654604082015260085460d690600160a81b900460ff16610ad8576102a154610af0565b60036102a15460010181610aee57610aee612a9d565b065b60038110610b0057610b00612a87565b609902016001015481606001818152505090565b60065415610b3a5760075468010000000000000000900467ffffffffffffffff16610b48565b60075467ffffffffffffffff165b67ffffffffffffffff16815290565b6000546001600160a01b03163314610b6e57600080fd5b6040516001600160a01b038316908290600081818185875af1925050503d8060008114610bb7576040519150601f19603f3d011682016040523d82523d6000602084013e610bbc565b606091505b5050505050565b6000546001600160a01b03163314610bda57600080fd5b825491821816189055565b6004806002541660001480610c0457506000546001600160a01b031633145b610c0d57600080fd5b600854600160a01b900460ff16610c665760405162461bcd60e51b815260206004820152601b60248201527f436f6e7472616374206973206e6f7420696e697469616c697a6564000000000060448201526064016105a6565b6003543360009081526102a460205260409020541015610cc85760405162461bcd60e51b815260206004820152601560248201527f42616c616e6365206973206e6f7420656e6f756768000000000000000000000060448201526064016105a6565b6000610cd383611a4b565b90506000610ce082611ebc565b9050610ceb82611b49565b600654421015610d8857600554600c5401816040015160a0015167ffffffffffffffff161015610d835760405162461bcd60e51b815260206004820152603060248201527f43616e206f6e6c79207265706c6163652077697468206120737566666963696560448201527f6e746c79206e6577657220626c6f636b0000000000000000000000000000000060648201526084016105a6565b610e28565b60065415610e28576007805468010000000000000000810467ffffffffffffffff1667ffffffffffffffff19909116179055600854600160a81b900460ff1615610de85760036102a15460010181610de257610de2612a9d565b066102a1555b600060068190556009546007805467ffffffffffffffff90811684526102a26020908152604080862094909455600a54925490911684526102a390529120555b60075460408201515167ffffffffffffffff918216911611610eb25760405162461bcd60e51b815260206004820152602160248201527f4e657720626c6f636b206d75737420686176652068696768657220686569676860448201527f740000000000000000000000000000000000000000000000000000000000000060648201526084016105a6565b600060d66102a15460038110610eca57610eca612a87565b60990201546040830151602001511415610ee657506000610f99565b60d660036102a15460010181610efe57610efe612a9d565b0660038110610f0f57610f0f612a87565b60990201546040830151602001511415610f2b57506001610f99565b60405162461bcd60e51b815260206004820152602260248201527f45706f6368206964206f662074686520626c6f636b206973206e6f742076616c60448201527f696400000000000000000000000000000000000000000000000000000000000060648201526084016105a6565b600060d682610fab576102a154610fc3565b60036102a15460010181610fc157610fc1612a9d565b065b60038110610fd357610fd3612a87565b60990201905080600101548360a001515110156110325760405162461bcd60e51b815260206004820152601a60248201527f417070726f76616c206c69737420697320746f6f2073686f727400000000000060448201526064016105a6565b600181015460009081905b80821461110557600084606601600184901c6032811061105f5761105f612a87565b015490508660a00151838151811061107957611079612a87565b602002602001015160000151156110a5578060801c6fffffffffffffffffffffffffffffffff16840193505b818360010193508314156110b95750611105565b8660a0015183815181106110cf576110cf612a87565b602002602001015160000151156110f9576fffffffffffffffffffffffffffffffff811693909301925b5081600101915061103d565b50508160980154811161115a5760405162461bcd60e51b815260206004820152601160248201527f546f6f2066657720617070726f76616c7300000000000000000000000000000060448201526064016105a6565b8215611237576080840151516111b25760405162461bcd60e51b815260206004820181905260248201527f4e657874206e6578745f6270732073686f756c64206e6f74206265204e6f6e6560448201526064016105a6565b836040015160c00151846080015160400151146112375760405162461bcd60e51b815260206004820152602660248201527f48617368206f6620626c6f636b2070726f64756365727320646f6573206e6f7460448201527f206d61746368000000000000000000000000000000000000000000000000000060648201526084016105a6565b60408401518051600780547fffffffffffffffffffffffffffffffff0000000000000000ffffffffffffffff166801000000000000000067ffffffffffffffff9384160217905560a082015116600c5560c085015160095560e090810151600a55840151600b55600182015460009081905b808210156113265760008760a0015183815181106112c9576112c9612a87565b6020026020010151905080600001511561131a57826001901b841793508060200151600e84606481106112fe576112fe612a87565b6002020160008201518160000155602082015181600101559050505b506001909101906112a9565b5050600d8190556008805485158015600160a81b027fffffffffffffffffffff00ffffffffffffffffffffffffffffffffffffffffff909216919091179091556113c057600060d660036102a1546002018161138457611384612a9d565b066003811061139557611395612a87565b60990201905085604001516040015181600001819055506113be86608001516020015182611ba0565b505b50506008805473ffffffffffffffffffffffffffffffffffffffff1916331790555050600454420160065550505050565b600d546000906001831b166114485760405162461bcd60e51b815260206004820152601160248201527f4e6f2073756368207369676e617475726500000000000000000000000000000060448201526064016105a6565b60085460009060d690600160a81b900460ff16611468576102a154611480565b60036102a1546001018161147e5761147e612a9d565b065b6003811061149057611490612a87565b6099020190506000600e84606481106114ab576114ab612a87565b600202019050600080600b54611563600760089054906101000a900467ffffffffffffffff16600201600060088267ff00ff00ff00ff001667ffffffffffffffff16901c60088366ff00ff00ff00ff1667ffffffffffffffff16901b17915060108267ffff0000ffff00001667ffffffffffffffff16901c60108365ffff0000ffff1667ffffffffffffffff16901b17915060208267ffffffffffffffff16901c60208367ffffffffffffffff16901b179050919050565b60405160f89390931b7fff00000000000000000000000000000000000000000000000000000000000000166020840152602183019190915260c01b7fffffffffffffffff000000000000000000000000000000000000000000000000166041820152600060498201526060016040516020818303038152906040529050600080828060200190518101906115f79190612ab3565b915091507f00000000000000000000000000000000000000000000000000000000000000006001600160a01b031663ebd1b95186600201896064811061163f5761163f612a87565b01548654600188015460405160e085901b7fffffffff000000000000000000000000000000000000000000000000000000001681526004810193909352602483019190915260448201526064810185905276ffffffffffffffffffffffffffffffffffffffffffffff198416608482015260a401602060405180830381865afa1580156116d0573d6000803e3d6000fd5b505050506040513d601f19601f820116820180604052508101906116f49190612b00565b979650505050505050565b6000546001600160a01b0316331461171657600080fd5b6001805473ffffffffffffffffffffffffffffffffffffffff19169055565b600880600254166000148061175457506000546001600160a01b031633145b61175d57600080fd5b60065442106117d45760405162461bcd60e51b815260206004820152602760248201527f4e6f20626c6f636b2063616e206265206368616c6c656e67656420617420746860448201527f69732074696d650000000000000000000000000000000000000000000000000060648201526084016105a6565b6117dd826113f1565b1561182a5760405162461bcd60e51b815260206004820152601f60248201527f43616e2774206368616c6c656e67652076616c6964207369676e61747572650060448201526064016105a6565b6003546008546001600160a01b031660009081526102a460205260409020546118539190612b38565b6008546001600160a01b0390811660009081526102a460205260408120929092556006919091556003549084169061188d90600290612b4f565b604051600081818185875af1925050503d80600081146118c9576040519150601f19603f3d011682016040523d82523d6000602084013e6118ce565b606091505b505050505050565b6000546060906001600160a01b031633146118f057600080fd5b600080846001600160a01b03168460405161190b9190612b71565b600060405180830381855af49150503d8060008114611946576040519150601f19603f3d011682016040523d82523d6000602084013e61194b565b606091505b50915091508161195a57600080fd5b949350505050565b6000546001600160a01b0316331461197957600080fd5b9055565b6000546001600160a01b0316331461199457600080fd5b61199d81611dbc565b6001805473ffffffffffffffffffffffffffffffffffffffff19166001600160a01b0392909216919091179055565b60018060025416600014806119eb57506000546001600160a01b031633145b6119f457600080fd5b60035434148015611a1357503360009081526102a46020526040902054155b611a1c57600080fd5b503360009081526102a460205260409020349055565b6000546001600160a01b03163314611a4957600080fd5b565b604080518082019091526000808252602082015260208201815281611a6e815190565b825101602083015250919050565b60606000611a89836121f9565b63ffffffff1690508067ffffffffffffffff811115611aaa57611aaa61280d565b604051908082528060200260200182016040528015611afb57816020015b6040805160808101825260006060820181815282526020808301829052928201528252600019909201910181611ac85790505b50915060005b81811015611b4257611b1284612235565b838281518110611b2457611b24612a87565b60200260200101819052508080611b3a90612b8d565b915050611b01565b5050919050565b6020810151815114611b9d5760405162461bcd60e51b815260206004820152601960248201527f5061727365206572726f723a20454f492065787065637465640000000000000060448201526064016105a6565b50565b81516064811115611c3f5760405162461bcd60e51b815260206004820152604a60248201527f4974206973206e6f7420657870656374656420686176696e672074686174206d60448201527f616e7920626c6f636b2070726f64756365727320666f72207468652070726f7660648201527f6964656420626c6f636b00000000000000000000000000000000000000000000608482015260a4016105a6565b6001820181905560005b81811015611c9257838181518110611c6357611c63612a87565b60200260200101516000015160000151836002018260648110611c8857611c88612a87565b0155600101611c49565b506000805b828114611da6576000858281518110611cb257611cb2612a87565b6020026020010151602001519050806fffffffffffffffffffffffffffffffff168301925083826001019250821415611d1d578060801b6fffffffffffffffffffffffffffffffff191685606601600184901c60328110611d1557611d15612a87565b015550611da6565b6000868381518110611d3157611d31612a87565b60209081029190910181015101516fffffffffffffffffffffffffffffffff8116948501949091507fffffffffffffffffffffffffffffffff00000000000000000000000000000000608084901b160160668701600185901c60328110611d9a57611d9a612a87565b01555050600101611c97565b5060036002820204836098018190555050505050565b6000546001600160a01b0382811691161415611e405760405162461bcd60e51b815260206004820152602a60248201527f4e6f6d696e617465642061646d696e206973207468652073616d65206173207460448201527f68652063757272656e740000000000000000000000000000000000000000000060648201526084016105a6565b6001600160a01b038116611b9d5760405162461bcd60e51b815260206004820152602960248201527f4e6f6d696e617465642061646d696e2073686f756c646e2774206265207a657260448201527f6f2061646472657373000000000000000000000000000000000000000000000060648201526084016105a6565b611f6160408051610100808201835260008083526020808401829052845161012081018652828152908101829052808501829052606081018290526080810182905260a0810182905260c0810182905260e0810182905291820152909182019081526000602080830182905260408051606080820183528482529281019290925281810192909252910190815260606020820181905260006040830181905291015290565b611f6a826122c8565b8152611f75826122c8565b6020820152611f83826122d5565b6040820152611f91826122c8565b6060820152611f9f826123b5565b60808201526000611faf836121f9565b63ffffffff1690508067ffffffffffffffff811115611fd057611fd061280d565b60405190808252806020026020018201604052801561202957816020015b60408051808201825260008082528251808401909352808352602080840191909152810191909152815260200190600190039081611fee5790505b5060a083015260005b81811015612077576120438461241a565b8360a00151828151811061205957612059612a87565b6020026020010181905250808061206f90612b8d565b915050612032565b506002808360400151610100015184606001516040516020016120a4929190918252602082015260400190565b60408051601f19818403018152908290526120be91612b71565b602060405180830381855afa1580156120db573d6000803e3d6000fd5b5050506040513d601f19601f820116820180604052508101906120fe9190612ba8565b835160408051602081019390935282015260600160408051601f198184030181529082905261212c91612b71565b602060405180830381855afa158015612149573d6000803e3d6000fd5b5050506040513d601f19601f8201168201806040525081019061216c9190612ba8565b60c0830181905260208084015160405160029361219493909101918252602082015260400190565b60408051601f19818403018152908290526121ae91612b71565b602060405180830381855afa1580156121cb573d6000803e3d6000fd5b5050506040513d601f19601f820116820180604052508101906121ee9190612ba8565b60e083015250919050565b600061222f612209836004612467565b60e881901c62ff00ff1663ff00ff0060d89290921c9190911617601081811c91901b1790565b92915050565b604080516080810182526000606082018181528252602082018190529181018290529061226183612480565b905061226c83612496565b612275836124c3565b82526122808361253b565b6fffffffffffffffffffffffffffffffff16602083015260ff8116600114156122bb576122ac83612480565b60ff161515604083015261090b565b6000604083015250919050565b600061222f826020612467565b6040805161012081018252600080825260208201819052918101829052606081018290526080810182905260a0810182905260c0810182905260e081018290526101008101919091526123298260d06125e8565b61010082015261233882612607565b67ffffffffffffffff16815261234d826122c8565b602082015261235b826122c8565b6040820152612369826122c8565b6060820152612377826122c8565b608082015261238582612607565b67ffffffffffffffff1660a082015261239d826122c8565b60c08201526123ab826122c8565b60e0820152919050565b604080516060808201835260008083526020830191909152918101919091526123dd8261267c565b15801582526124155781516123f183611a7c565b6020830152825161240e908290612409908290612b38565b6126e9565b6040830152505b919050565b6040805180820182526000808252825180840190935280835260208084019190915281019190915261244b8261267c565b15801582526124155761245d8261270b565b6020820152919050565b600061247383836127b2565b5081518051910190915290565b600061248d826001612467565b60f81c92915050565b60006124a1826121f9565b63ffffffff1690506124bc81836127b290919063ffffffff16565b8151019052565b6040805160208101909152600081526124db82612480565b60ff161561252b5760405162461bcd60e51b815260206004820152601d60248201527f5061727365206572726f723a20696e76616c6964206b6579207479706500000060448201526064016105a6565b612534826122c8565b8152919050565b600061222f61254b836010612467565b60801c6dff000000ff000000ff000000ff00600882811b9182166cff000000ff000000ff000000ff9390911c92831617601090811b6fff000000ff000000ff000000ff0000009092166eff000000ff000000ff000000ff00009093169290921790911c17602081811b6fffffffff00000000ffffffff00000000166bffffffff00000000ffffffff9290911c9190911617604081811b91901c1790565b60006125f483836127b2565b825161260090836126e9565b9392505050565b600061222f612617836008612467565b66ff000000ff000060c882901c90811667ff000000ff00000060b89390931c92831617601090811c64ff000000ff9290921665ff000000ff00939093169290921790911b17602081811c63ffffffff1691901b6bffffffffffffffff00000000161790565b60008061268883612480565b905060018160ff1611156126de5760405162461bcd60e51b815260206004820152601960248201527f5061727365206572726f723a20696e76616c696420626f6f6c0000000000000060448201526064016105a6565b60ff16151592915050565b600060206000838560025afa5b80612700576126f6565b505060005192915050565b604080518082019091526000808252602082015261272882612480565b60ff161561279e5760405162461bcd60e51b815260206004820152602360248201527f5061727365206572726f723a20696e76616c6964207369676e6174757265207460448201527f797065000000000000000000000000000000000000000000000000000000000060648201526084016105a6565b6127a7826122c8565b815261245d826122c8565b60208201518251820111156128095760405162461bcd60e51b815260206004820152601b60248201527f5061727365206572726f723a20756e657870656374656420454f49000000000060448201526064016105a6565b5050565b634e487b7160e01b600052604160045260246000fd5b600082601f83011261283457600080fd5b813567ffffffffffffffff8082111561284f5761284f61280d565b604051601f8301601f19908116603f011681019082821181831017156128775761287761280d565b8160405283815286602085880101111561289057600080fd5b836020870160208301376000602085830101528094505050505092915050565b6000602082840312156128c257600080fd5b813567ffffffffffffffff8111156128d957600080fd5b61195a84828501612823565b6000602082840312156128f757600080fd5b813567ffffffffffffffff8116811461260057600080fd5b60006020828403121561292157600080fd5b5035919050565b6001600160a01b0381168114611b9d57600080fd5b6000806040838503121561295057600080fd5b823561295b81612928565b946020939093013593505050565b60008060006060848603121561297e57600080fd5b505081359360208301359350604090920135919050565b6000602082840312156129a757600080fd5b813561260081612928565b600080604083850312156129c557600080fd5b82356129d081612928565b9150602083013567ffffffffffffffff8111156129ec57600080fd5b6129f885828601612823565b9150509250929050565b60005b83811015612a1d578181015183820152602001612a05565b83811115612a2c576000848401525b50505050565b6020815260008251806020840152612a51816040850160208701612a02565b601f01601f19169190910160400192915050565b60008060408385031215612a7857600080fd5b50508035926020909101359150565b634e487b7160e01b600052603260045260246000fd5b634e487b7160e01b600052601260045260246000fd5b60008060408385031215612ac657600080fd5b82519150602083015176ffffffffffffffffffffffffffffffffffffffffffffff1981168114612af557600080fd5b809150509250929050565b600060208284031215612b1257600080fd5b8151801515811461260057600080fd5b634e487b7160e01b600052601160045260246000fd5b600082821015612b4a57612b4a612b22565b500390565b600082612b6c57634e487b7160e01b600052601260045260246000fd5b500490565b60008251612b83818460208701612a02565b9190910192915050565b6000600019821415612ba157612ba1612b22565b5060010190565b600060208284031215612bba57600080fd5b505191905056fea26469706673582212200d79624ec0336d28e8248177f7e0de21438ed3c6d76335019e65f5f4343cdfb564736f6c634300080b0033",
  "linkReferences": {},
  "deployedLinkReferences": {}
}